:100000000C9465000C948D000C948D000C948D0064
:100010000C948D000C948D000C948D000C948D002C
:100020000C948D000C945C030C948D000C948D004A
:100030000C948D000C948D000C948D000C948D000C
:100040000C948D000C94A6030C948D000C948D00E0
:100050000C948D0000003A0037003400310000009D
:100060003B003800350032000202020202020202A6
:100070000404040404040404030303030303030348
:100080000101010101010101010204081020408069
:100090000102040810204080010204081020408062
:1000A0008040201008040201000000010000000050
:1000B0000000000004030006000000000000000033
:1000C0000000000000000000CB0411241FBECFE59B
:1000D000D4E0DEBFCDBF10E0A0E6B0E0E6E0FDE09A
:1000E00002C005900D92AC39B107D9F721E0ACE917
:1000F000B0E001C01D92A835B207E1F710E0C5E6F7
:10010000D0E004C02197FE010E947606C436D107D4
:10011000C9F70E94EC040C9481060C94000090E056
:10012000FC01E855FF4F2491FC01E857FF4F349143
:10013000FC01E859FF4FE491EE23F9F0222381F00E
:10014000243039F0263049F0233051F48FB58F77C1
:1001500002C08FB58F7D8FBD03C085B58F7D85BDF6
:10016000F0E0EE0FFF1FE25AFF4FA591B4918FB759
:10017000F894EC91E32BEC938FBF0895CF92DF922C
:10018000EF92FF920F931F93CF93DF936C017A014D
:100190008B01C0E0D0E0CE15DF0589F0D8016D916C
:1001A0008D01D601ED91FC910190F081E02DC60109
:1001B0000995892B11F47E0102C02196ECCFC7016D
:1001C000DF91CF911F910F91FF90EF90DF90CF9033
:1001D00008953FB7F89480912E0190912F01A0913E
:1001E0003001B091310122B708B600FE05C02F3FA3
:1001F00019F00196A11DB11D3FBFBA2FA92F982F4D
:100200008827820F911DA11DB11DBC01CD0142E0C7
:10021000660F771F881F991F4A95D1F708958F920F
:100220009F92AF92BF92CF92DF92EF92FF926B01BB
:100230007C010E94E9004B015C01C114D104E1047E
:10024000F104F1F00E94E900DC01CB018819990961
:10025000AA09BB09883E9340A105B10570F321E0CE
:10026000C21AD108E108F10888EE880E83E0981ED2
:10027000A11CB11CC114D104E104F10419F7DDCFB4
:10028000FF90EF90DF90CF90BF90AF909F908F90B6
:10029000089585ED86BF06B604FCFDCF10923401AB
:1002A00008954091E000262F30E0240F311D2132C7
:1002B0003105DCF4209134012430C9F4FC0180E0E4
:1002C00090E0861758F43091E0002191DC01A254AF
:1002D000BF4FA30FB11D2C930196F3CF8091E00087
:1002E000680F6093E00080E0089581E0089582E067
:1002F0000895089581E090E0309138012091370110
:10030000321710F480E090E091958195910908955D
:100310008091380190913701891730F48F5F809375
:10032000380180E090E008958FEF9FEF089580916D
:10033000370190E020913801821B91090895CF92F6
:10034000DF92EF92FF920F931F93CF93DF937C0185
:10035000262F972F8A018091BD00882391F0C62F08
:10036000D72F6E01C40ED51ECC15DD0571F0699135
:10037000D701ED91FC910190F081E02DC701099525
:10038000F3CF642F822F0E945101C801DF91CF91DA
:100390001F910F91FF90EF90DF90CF900895CF9332
:1003A000DF931F92CDB7DEB769832091BD00222372
:1003B000D1F020913501203240F021E030E0FC0105
:1003C0003383228380E090E015C080913601E82FCE
:1003D000F0E0E356FF4F998190838F5F8093360161
:1003E0008093350105C061E0CE0101960E94510164
:1003F00081E090E00F90DF91CF910895CF93FC01C1
:10040000C48121E02093BD00C0939C00109236016E
:10041000109235018485682B8FE391E00E94CF0113
:1004200080913501813208F043C0909134019111DF
:10043000FCCF92E09093340191E0909333019FEFD1
:10044000909305011092270180932601ADE9B0E059
:1004500026E031E0F9019E2F921B981718F49D9128
:100460009193F9CF1092280180912801CC0FC82BCD
:10047000C093280180913201813051F410923201F1
:100480008091280183B906B603FCFACF85EC01C040
:1004900085EE86BF809134018230E1F380910501C1
:1004A0008F3F31F080910501803211F0809105017C
:1004B00010923601109235011092BD00CF9108952F
:1004C0000F931F93CF938C01C62F0E94FE016C2FB8
:1004D0006460C8010E94FE016C2F6B7FC8010E94FE
:1004E000FE0183EC90E00197F1F7CF911F910F91FE
:1004F0000895FF920F931F93CF93DF931F92CDB771
:10050000DEB78C01F62E962F907F692F642BC801E1
:1005100049830E94600280E1F89EB0011124498164
:10052000642BC8010F90DF91CF911F910F91FF9025
:100530000C946002CF93DF93CDB7DEB728970FB648
:10054000F894DEBF0FBECDBF28E0E0E6F0E0DE01AC
:10055000119601900D922A95E1F7209153012617EB
:1005600010F46FEF620FFE013196E60FF11DE60FFA
:10057000F11D9081682F690F606840E08BE491E085
:1005800028960FB6F894DEBF0FBECDBFDF91CF9196
:100590000C94790240E061E08BE491E00E947902E2
:1005A0008BE39FE10197F1F780915401882321F0BB
:1005B00060E080E00C949A020895CF93DF9382303C
:1005C00028F09091500198609093500180935301CE
:1005D00062E370E080E090E00E940F0160915701BB
:1005E0008BE491E00E94FE0168EE73E080E090E011
:1005F0000E940F0160E38BE491E00E946002CBE473
:10060000D6E4CE010197F1F760E38BE491E00E941C
:1006100060022197F1F760E38BE491E00E946002B1
:1006200083E592E00197F1F760E28BE491E00E94AC
:10063000600260915001606240E08BE491E00E94B2
:10064000790284E08093510140E06CE08BE491E01A
:100650000E9479020E94CA0282E08093520140E027
:1006600066E08BE491E00E94790240E062E08BE476
:1006700091E00E9479028BE39FE10197F1F7DF910E
:10068000CF91089541E00E94790281E090E00895C1
:10069000009769F0FC0101900020E9F73197AF0164
:1006A000481B590BBC018BE491E00C94BE0080E028
:1006B00090E008950E947C061F920F920FB60F9251
:1006C00011242F933F938F939F93AF93BF93809168
:1006D0002A0190912B01A0912C01B0912D01309114
:1006E000290123E0230F2D3720F40196A11DB11D10
:1006F00005C026E8230F0296A11DB11D20932901F4
:1007000080932A0190932B01A0932C01B0932D018B
:1007100080912E0190912F01A0913001B091310173
:100720000196A11DB11D80932E0190932F01A093DE
:100730003001B0933101BF91AF919F918F913F9163
:100740002F910F900FBE0F901F9018951F920F9230
:100750000FB60F9211242F933F934F935F936F9394
:100760007F938F939F93AF93BF93EF93FF9381B149
:10077000887F803609F499C068F5883209F45BC037
:1007800090F4803109F454C038F4882309F4EEC0A1
:10079000883009F44DC0EEC0883109F44CC0803275
:1007A00009F45CC0E7C0803409F466C048F48033C3
:1007B00009F454C0883309F0DDC080930501D1C02D
:1007C000803509F44EC0883509F45BC0883409F0DF
:1007D000D1C0CEC0883909F4C1C0A8F4883709F463
:1007E00064C038F4883609F460C0803709F45DC00D
:1007F000C1C0883809F4B2C0803909F45CC08038BF
:1008000009F0B8C058C0803B09F481C038F4803A80
:1008100009F462C0883A09F47AC0ACC0803C09F49B
:10082000A0C0883C09F49DC0883B09F485C0A2C0E3
:100830008091280110C0909127018091260198177E
:1008400058F5E091270181E08E0F80932701F0E0B9
:10085000EA5FFE4F808183B985EC81C080930501FA
:1008600087C0E091270181E08E0F8093270183B13B
:10087000F0E0EA5FFE4F808390912701809126018E
:100880006AC0E091270181E08E0F8093270183B138
:10089000F0E0EA5FFE4F808380913301811168C0F0
:1008A00081E08093320184EA5DC083E0809334016B
:1008B00010920401D1CF80910401803208F04EC023
:1008C000E091040181E08E0F8093040183B1F0E098
:1008D000EC51FF4F8083C0CF85EC86BF109234016E
:1008E00080910401803230F4E0910401F0E0EC5199
:1008F000FF4F10826091040170E0E091E200F091FE
:10090000E30084EE90E009951092040133C084E086
:10091000809334011092E1001092E000E091DE003B
:10092000F091DF0009958091E000811105C081E020
:100930008093E0001092BE00E091E10081E08E0F14
:100940008093E100F0E0E254FF4F808183B9909101
:10095000E1008091E000981708F47ECF85E886BF1B
:1009600009C085EC86BF1092340104C010920501C5
:100970000E944901FF91EF91BF91AF919F918F919B
:100980007F916F915F914F913F912F910F900FBE8B
:100990000F901F901895EFE3F1E01382128288EE1A
:1009A00093E0A0E0B0E084839583A683B7838CE6D0
:1009B00090E091838083EBE4F1E0138212828CE774
:1009C00090E091838083118687E2848380E182872F
:1009D00084E0838714860895CF93DF93CDB7DEB785
:1009E000A9970FB6F894DEBF0FBECDBF789483B73A
:1009F000826083BF83B7816083BF89B7816089BF0D
:100A00001EBC8EB582608EBD8EB581608EBD8FB5E9
:100A100081608FBD85B5846085BD85B5806485BDE9
:100A2000329A319A309A379A1AB8E9EAF0E024916A
:100A3000E9E8F0E084918823C9F090E0880F991FDD
:100A4000FC01EC5AFF4F45915491FC01E25AFF4FD3
:100A5000A591B4919FB7F894FA01808120958223E3
:100A600080838C91E22FE823EC939FBF84E00E9467
:100A7000DD02109238011092370110923601109267
:100A800035011092340181E08093330110923201DC
:100A900081E10E948F0080E10E948F0008980998F0
:100AA00088E480B985E486BF109250018091560198
:100AB0000E94DD0288E08093570160E08BE491E0C2
:100AC0000E94FE010E94CA0260ED77E080E090E0A3
:100AD0000E940F0160E083E00E949A0280E890E0AB
:100AE0000E94480361E082E00E949A028EE890E052
:100AF0000E94480383E4982E98EE492E93E0592EE5
:100B0000612C712C2AE0C22ED12CE12CF12C30E08A
:100B1000A32E30E0B32E10923B0110923C011092B4
:100B20003D0110923E0162E080E00E949A0228EEB0
:100B300033E097B8369A3699FECF84B145B190E04C
:100B4000942B90933A0180933901AC01990F660B75
:100B5000770B4EA35FA368A779A740913B01509103
:100B60003C0160913D0170913E018EA19FA1A8A51D
:100B7000B9A5840F951FA61FB71F8EA39FA3A8A773
:100B8000B9A780933B0190933C01A0933D01B093A2
:100B90003E012150310969F6BC01CD01A30192014A
:100BA0000E94570620933B0130933C0140933D0146
:100BB00050933E0157FF2EC0E0914B01F0914C0144
:100BC0000190F081E02D6DE28BE491E02AA33BA33C
:100BD0004CA35DA309952AA13BA14CA15DA1509511
:100BE0004095309521953F4F4F4F5F4F19A28E0191
:100BF0000F5D1F4FCA01B901A70196010E9435067A
:100C0000605DD8016E938D012115310541055105B7
:100C100089F713C019A28E010F5D1F4FCA01B901D8
:100C2000A70196010E943506605DF80162938F016D
:100C3000211531054105510589F7C8010E94480376
:100C400068EE73E080E090E00E940F010E94CA020B
:100C500068EC70E080E090E00E940F01A114B10404
:100C600009F459CF0E94000056CFA1E21A2EAA1B08
:100C7000BB1BFD010DC0AA1FBB1FEE1FFF1FA2174C
:100C8000B307E407F50720F0A21BB30BE40BF50B49
:100C9000661F771F881F991F1A9469F760957095D2
:100CA000809590959B01AC01BD01CF010895052E63
:100CB00097FB1EF400940E946E0657FD07D00E9419
:100CC000350607FC03D04EF40C946E065095409503
:100CD000309521953F4F4F4F5F4F089590958095E8
:100CE000709561957F4F8F4F9F4F0895EE0FFF1FB7
:100CF0000590F491E02D099481E090E0F8940C9433
:060D00008106F894FFCF0C
:100D0600000040001400540000000000CF019F01C5
:100D1600970188017A017901000000004203BE00B4
:100D260048656C6C6F2C20776F726C642100416D86
:0C0D360061722041726475696E6F2100CB
:00000001FF
